{
    "contractName": "Microfinance",
    "abi": [
        {
            "inputs": [
                {
                    "internalType": "string",
                    "name": "_name",
                    "type": "string"
                }
            ],
            "name": "setUserProfile",
            "outputs": [],
            "stateMutability": "nonpayable",
            "type": "function"
        },
        {
            "inputs": [
                {
                    "internalType": "address",
                    "name": "_user",
                    "type": "address"
                }
            ],
            "name": "getUserProfile",
            "outputs": [
                {
                    "internalType": "string",
                    "name": "",
                    "type": "string"
                },
                {
                    "internalType": "address",
                    "name": "",
                    "type": "address"
                },
                {
                    "internalType": "uint256",
                    "name": "",
                    "type": "uint256"
                }
            ],
            "stateMutability": "view",
            "type": "function"
        },
        {
            "inputs": [
                {
                    "internalType": "uint256",
                    "name": "_amount",
                    "type": "uint256"
                }
            ],
            "name": "addBalance",
            "outputs": [],
            "stateMutability": "nonpayable",
            "type": "function"
        }
    ],
    "bytecode": "0x608060405234801561001057600080fd5b5061011f806100206000396000f3fe6080604052600436106100465760003560e01c806322f0a5f61461004b5780632a1afcd9146100ae578063d13e5c45146100d3575b600080fd5b61006c60048036038101906100679190610124565b6100ed565b6040516100799190610191565b60405180910390f35b6100bc60048036038101906100b7919061010f565b610105565b6040516100c99190610191565b60405180910390f35b6100db610136565b6040516100e89190610191565b60405180910390f35b60005481565b600081815260208190526040812055565b60005490565b60008054909101905556fea26469706673582212207a9c11d0e66c58b46ec19b2a150501e9d5b18313089d2ff7a66b4236aa0467c864736f6c63430008000033",
    "source": "pragma solidity ^0.8.0;\n\ncontract Microfinance {\n    struct UserProfile {\n        string name;\n        address userAddress;\n        uint256 balance;\n    }\n\n    mapping(address => UserProfile) private profiles;\n\n    function setUserProfile(string memory _name) public {\n        profiles[msg.sender] = UserProfile(_name, msg.sender, 0);\n    }\n\n    function getUserProfile(address _user) public view returns (string memory, address, uint256) {\n        UserProfile memory profile = profiles[_user];\n        return (profile.name, profile.userAddress, profile.balance);\n    }\n\n    function addBalance(uint256 _amount) public {\n        profiles[msg.sender].balance += _amount;\n    }\n}",
    "sourcePath": "Microfinance.sol",
    "compiler": {
        "name": "solc",
        "version": "0.8.0+commit.c7dfd78e.Emscripten.clang"
    },
    "schemaVersion": "3.2.9",
    "updatedAt": "2024-08-09T00:00:00.000Z"
}