{
  "contractName": "Microfinance",
  "abi": [
    {
      "inputs": [
        {
          "internalType": "string",
          "name": "_name",
          "type": "string"
        }
      ],
      "name": "setUserProfile",
      "outputs": [],
      "stateMutability": "nonpayable",
      "type": "function"
    },
    {
      "inputs": [
        {
          "internalType": "address",
          "name": "_user",
          "type": "address"
        }
      ],
      "name": "getUserProfile",
      "outputs": [
        {
          "internalType": "string",
          "name": "",
          "type": "string"
        },
        {
          "internalType": "address",
          "name": "",
          "type": "address"
        },
        {
          "internalType": "uint256",
          "name": "",
          "type": "uint256"
        }
      ],
      "stateMutability": "view",
      "type": "function",
      "constant": true
    },
    {
      "inputs": [
        {
          "internalType": "uint256",
          "name": "_amount",
          "type": "uint256"
        }
      ],
      "name": "addBalance",
      "outputs": [],
      "stateMutability": "nonpayable",
      "type": "function"
    }
  ],
  "bytecode": "0x608060405234801561001057600080fd5b50610832806100206000396000f3fe608060405234801561001057600080fd5b50600436106100415760003560e01c80636401c30c14610046578063987ee15614610062578063d91921ed14610094575b600080fd5b610060600480360381019061005b91906104ae565b6100b0565b005b61007c60048036038101906100779190610485565b610194565b60405161008b9392919061056f565b60405180910390f35b6100ae60048036038101906100a991906104ef565b6102f5565b005b60405180606001604052808281526020013373ffffffffffffffffffffffffffffffffffffffff16815260200160008152506000803373ffffffffffffffffffffffffffffffffffffffff1673ffffffffffffffffffffffffffffffffffffffff168152602001908152602001600020600082015181600001908051906020019061013c929190610350565b5060208201518160010160006101000a81548173ffffffffffffffffffffffffffffffffffffffff021916908373ffffffffffffffffffffffffffffffffffffffff1602179055506040820151816002015590505050565b606060008060008060008673ffffffffffffffffffffffffffffffffffffffff1673ffffffffffffffffffffffffffffffffffffffff1681526020019081526020016000206040518060600160405290816000820180546101f4906106fe565b80601f0160208091040260200160405190810160405280929190818152602001828054610220906106fe565b801561026d5780601f106102425761010080835404028352916020019161026d565b820191906000526020600020905b81548152906001019060200180831161025057829003601f168201915b505050505081526020016001820160009054906101000a900473ffffffffffffffffffffffffffffffffffffffff1673ffffffffffffffffffffffffffffffffffffffff1673ffffffffffffffffffffffffffffffffffffffff1681526020016002820154815250509050806000015181602001518260400151935093509350509193909250565b806000803373ffffffffffffffffffffffffffffffffffffffff1673ffffffffffffffffffffffffffffffffffffffff1681526020019081526020016000206002016000828254610346919061062a565b9250508190555050565b82805461035c906106fe565b90600052602060002090601f01602090048101928261037e57600085556103c5565b82601f1061039757805160ff19168380011785556103c5565b828001600101855582156103c5579182015b828111156103c45782518255916020019190600101906103a9565b5b5090506103d291906103d6565b5090565b5b808211156103ef5760008160009055506001016103d7565b5090565b6000610406610401846105de565b6105ad565b90508281526020810184848401111561041e57600080fd5b6104298482856106bc565b509392505050565b600081359050610440816107ce565b92915050565b600082601f83011261045757600080fd5b81356104678482602086016103f3565b91505092915050565b60008135905061047f816107e5565b92915050565b60006020828403121561049757600080fd5b60006104a584828501610431565b91505092915050565b6000602082840312156104c057600080fd5b600082013567ffffffffffffffff8111156104da57600080fd5b6104e684828501610446565b91505092915050565b60006020828403121561050157600080fd5b600061050f84828501610470565b91505092915050565b61052181610680565b82525050565b60006105328261060e565b61053c8185610619565b935061054c8185602086016106cb565b610555816107bd565b840191505092915050565b610569816106b2565b82525050565b600060608201905081810360008301526105898186610527565b90506105986020830185610518565b6105a56040830184610560565b949350505050565b6000604051905081810181811067ffffffffffffffff821117156105d4576105d361078e565b5b8060405250919050565b600067ffffffffffffffff8211156105f9576105f861078e565b5b601f19601f8301169050602081019050919050565b600081519050919050565b600082825260208201905092915050565b6000610635826106b2565b9150610640836106b2565b9250827fffffffffffffffffffffffffffffffffffffffffffffffffffffffffffffffff0382111561067557610674610730565b5b828201905092915050565b600061068b82610692565b9050919050565b600073ffffffffffffffffffffffffffffffffffffffff82169050919050565b6000819050919050565b82818337600083830152505050565b60005b838110156106e95780820151818401526020810190506106ce565b838111156106f8576000848401525b50505050565b6000600282049050600182168061071657607f821691505b6020821081141561072a5761072961075f565b5b50919050565b7f4e487b7100000000000000000000000000000000000000000000000000000000600052601160045260246000fd5b7f4e487b7100000000000000000000000000000000000000000000000000000000600052602260045260246000fd5b7f4e487b7100000000000000000000000000000000000000000000000000000000600052604160045260246000fd5b6000601f19601f8301169050919050565b6107d781610680565b81146107e257600080fd5b50565b6107ee816106b2565b81146107f957600080fd5b5056fea2646970667358221220f734731ad7db66705801f53528821563de12882995f7c8dee72d8d2da9b74d1364736f6c63430008000033",
  "immutableReferences": {},
  "source": "// SPDX-License-Identifier: MIT\r\npragma solidity ^0.8.0;\r\n\r\ncontract Microfinance {\r\n    struct UserProfile {\r\n        string name;\r\n        address userAddress;\r\n        uint256 balance;\r\n    }\r\n\r\n    mapping(address => UserProfile) private profiles;\r\n\r\n    // Create or update a user profile\r\n    function setUserProfile(string memory _name) public {\r\n        profiles[msg.sender] = UserProfile(_name, msg.sender, 0);\r\n    }\r\n\r\n    // Get the user profile\r\n    function getUserProfile(address _user) public view returns (string memory, address, uint256) {\r\n        UserProfile memory profile = profiles[_user];\r\n        return (profile.name, profile.userAddress, profile.balance);\r\n    }\r\n\r\n    // Add balance to user account\r\n    function addBalance(uint256 _amount) public {\r\n        profiles[msg.sender].balance += _amount;\r\n    }\r\n}",
  "sourcePath": "C:\\Users\\JYOTHI\\Desktop\\project\\blockchain-toolkit\\contracts\\Microfinance.sol",
  "compiler": {
    "name": "solc",
    "version": "0.8.0+commit.c7dfd78e.Emscripten.clang"
  },
  "schemaVersion": "3.4.16",
  "updatedAt": "2024-08-09T04:18:22.479Z",
  "networkType": "ethereum",
  "devdoc": {
    "kind": "dev",
    "methods": {},
    "version": 1
  },
  "userdoc": {
    "kind": "user",
    "methods": {},
    "version": 1
  }
}